:0300000002070EE6
:0C070E00787FE4F6D8FD75815A0207558B
:0408BE00021900001B
:10088500E4F52290FEA0F07F02120AEA7F10120A18
:10089500C17F01120AC87F01120ACF12096112082D
:1008A500ED120A50120A3B1209827D01E4FF12057E
:0908B500DF12046A12084480F805
:1009A200D3EF9400EE940040147D3C7C06ED1D7064
:0D09B200011CED4C70F7EF1F70E61E80E396
:0109BF002215
:100A5000E490FE80F0F589758CFA758ACB43A80284
:040A60004388102295
:03000B00020AA541
:0A0AA500751C01751D01751E01325C
:030AE40025640086
:1009610090FF12E054F04408F090FFA07424F0E4EA
:1009710090FE8BF075CC0675CEFF75CD98759E02F5
:010981002253
:0B0A84008F99E59830E1FB5398FD22AC
:10093C008B468A478948AB46AA47A94812036A6086
:10094C00130548E5487002054714F912036AFF12B3
:05095C000A8480E22284
:06052D008B238A248925BE
:10053300753500753600753726AB23AA24A9251215
:10054300036AFF70030205DE64257074042525F534
:0F05530025E43524F524FAA92512036AB4643788
:10056200AB35E537F92402F537E536FA3400F536CE
:10057200120383F53985F0387549FF754A0A754BC0
:10058200E485384CF54D7B007A00793A12006A7B9B
:05059200007A00793A37
:0E0597008025AB23AA24A92512036AB4732B76
:1005A500AB35E537F92403F537E536FA3400F5368A
:0C05B5001203AE8B388A39893A12093CD7
:1005C100800DAB23AA24A92512036AFF120A8474A1
:0D05D100012525F525E43524F52402053C1F
:0105DE0022FA
:100A6400766464206C6576656C3A2025640D0A0012
:1008C200020E0000010D00010C0402100000010BD9
:0708D20000010900010A000A
:0B0A8F00EF600443BB802253BB7F22BA
:040AE00053BBF722EB
:050ADB00E5BBA2E322CF
:08000300E5BB54F84FF5BB22E8
:030AE7007F00226B
:0B0A9A00EF1FAC0670011E4C70F6222E
:1009820090FEA474C2F090FEA574FFF07F071200DF
:1009920003120AE07F01120A8F90FEA774FFF02271
:10046A00E51D700302052CE4F51D050FE50F70026A
:10047A00050ED3740A950FE4950E400302052CE489
:10048A00F50EF50F120ADB9209120AE78F08E50842
:10049A0024FB606014602E146003020529300916DB
:1004AA00120AE00509E509C394054076E4F50975E1
:1004BA000D017F0680260509E509C3940A4063E415
:1004CA00F509F50D22300917120AE00509E509C3F5
:1004DA009405404EE4F509750D027F0502000305F7
:1004EA0009E509C3940A403AE4F5097F07120003B3
:1004FA00750D0122300913120AE00509E509C394B2
:10050A0005401FE4F509750D03220509E509C394A1
:10051A000A400FE4F5097F06120003750D022275E1
:02052A00BB070D
:01052C0022AC
:10084400E51E603CE4F51E850D0C7BFF7A0A796495
:10085400850C2612052DE50C14600E14600F14602F
:10086400152403701B7F0180067F01800BE4FF12B7
:100874000AAF7F018007E4FF120AAFE4FF120AB84F
:010884002251
:1008D900011300011800011500011400021600009F
:0308E900011200F9
:1009DB00E51270047F0180027F008F12E512600424
:0909EB007F018002E4FF120A0EF4
:0109F40022E0
:010AED0022E6
:010AEE0022E5
:010AEF0022E4
:010AF00022E3
:010AF10022E2
:100A2500EF30E003020AEFEF30E103020AF0EF30A6
:060A3500E203120AF122A7
:1009C0008F1FE51F30E0030209DBE51F30E1030262
:0B09D0000AEDE51F30E203120AEE22E0
:100A3B007D067F051207EF7D027F0212079A7D0666
:050A4B007F030207EF2C
:10067F00E51C700302070DE4F51CA2A533F55A30F3
:10068F0082047F0280027F00EF425A30A3047F046E
:10069F0080027F00EF425AE55A7003F51322E513EB
:1006AF006047E514655A70300517E5177002051697
:1006BF00C394D0E5169407400CE515700875150125
:1006CF00AF5A020A25C3E517941EE5169400402E73
:1006DF00E518702A75180122E5157009E5186005EF
:1006EF00AF5A1209C0E4F51322E514655A600F855D
:0E06FF005A14751301E4F518F515F516F517E4
:01070D0022C9
:1008ED007D087F0412079A90FF9C7404F075DEFF5B
:1008FD00E4F5DF75DD927D08FF12079AD2807D0841
:08090D00E4FF1209F5D290226B
:100A0E00EF14600B14600C2402700BE4F5DF2275FA
:070A1E00DF102275DF5522F5
:090AAF00EF7003D28022C2802204
:090AB800EF7003D29022C29022DB
:030AEA008F8F22C9
:070AC100538ECFEF428E229D
:070AC800538EFCEF428E2269
:060ACF0090FE91EFF02201
:10079A00EFB40800504E9007A7F82828730207BF45
:1007AA000207C40207C90207CE0207D30207D8020A
:1007BA0007DD0207E690FF00801C90FF0080209072
:1007CA00FF01801290FF01801690FF02800890FFBF
:1007DA0002800C90FF03E054F04DF02290FF03E0FA
:0507EA00540F4DF02248
:1009F500EF14600C04701190FF08E054F04DF022E4
:090A050090FF08E0540F4DF022AF
:1007EF00EFB40800504E9007FCF828287302081445
:1007FF0002081902081E02082302082802082D0207
:10080F00083202083B90FF10801C90FF1080209050
:10081F00FF11801290FF11801690FF12800890FF39
:10082F0012800C90FF13E054F04DF02290FF13E074
:05083F00540F4DF022F2
:1005DF00EFB41000400302067E9005EFF828287351
:1005EF0002061F02062502062B02063102063702FB
:1005FF00063D02064302064902064F020655020651
:10060F005B02066102066702066D02067302067937
:10061F00ED24FF92AF22ED24FF92AE22ED24FF9244
:10062F00AD22ED24FF92AC22ED24FF92AB22ED24FC
:10063F00FF92AA22ED24FF92A922ED24FF92A82275
:10064F00ED24FF92BF22ED24FF92BE22ED24FF92F4
:10065F00BD22ED24FF92BC22ED24FF92BB22ED249C
:10066F00FF92BA22ED24FF92B922ED24FF92B82215
:060AD500EF4D4BF5BD22C0
:100A7400300A0790FEA074FFF022E490FEA0F0225A
:10071A00020885E493A3F8E493A34003F68001F268
:10072A0008DFF48029E493A3F85407240CC8C333E0
:10073A00C4540F4420C8834004F456800146F6DFAF
:10074A00E4800B01020408102040809008BEE47E79
:10075A00019360BCA3FF543F30E509541FFEE493A4
:10076A00A360010ECF54C025E060A840B8E493A36B
:10077A00FAE493A3F8E493A3C8C582C8CAC583CA96
:10078A00F0A3C8C582C8CAC583CADFE9DEE780BE4E
:0108EC00000B
:10036A00BB010689828A83E0225002E722BBFE0291
:09037A00E32289828A83E49322C4
:10038300BB010A89828A83E0F5F0A3E02250068745
:10039300F009E71922BBFE07E3F5F009E319228907
:0B03A300828A83E493F5F0740193223A
:1003AE00BB010789828A830204265005E9F80204FC
:1003BE000DBBFE05E9F802042F89828A83020438F8
:10000E00E5552449F8E60555227846300702784929
:10001E00E475F00112041602036A2000EB7F2ED263
:10002E00008018EF540F2490D43440D4FF30040BCA
:10003E00EF24BFB41A0050032461FFE55660021589
:10004E00560559E5597002055830070D7846E47586
:10005E00F001120416EF0203FB0209157403D20716
:10006E008003E4C207F5558B468A478948E4F55666
:10007E00F558F559E55660077F2012004980F57551
:10008E0057FFC201C200C202C203C205C206C208A5
:10009E00120017FF700D3007057F0012005AAF597E
:1000AE00AE5822B4255FC2D5C204120017FF24D069
:1000BE00B40A00501A75F00A785630D50508B6FF06
:1000CE000106C6A426F620D5047002D20380D924D8
:1000DE00CFB41A00EF5004C2E5D20402025AD20184
:1000EE0080C6D20080C0D20280BCD2D580BAD205E2
:1000FE0080B47F201200492002077401B5560040DB
:10010E00F112000EFF120049020082D208D20680C0
:10011E009512000EFB12000EFA12000EF94A4B70E9
:10012E0006792B7A037BFF20022EE556602A7E008D
:10013E008E827583001203CE60060EEE655770F048
:10014E00C2D5EBC0E0EAC0E0E9C0E0EE1202A1D0F9
:10015E00E0F9D0E0FAD0E0FB12036AFF60AAEBC030
:10016E00E0EAC0E0E9C0E0120049D0E02401F9D095
:10017E00E03400FAD0E0FBE5570460DCD557D980B7
:10018E00877BFF7A02799DD202809C79108002795A
:10019E0008C206C2088008D2D5790A8004790AC23C
:1001AE00D5E557047002F557E4FAFDFEFF12000E76
:1001BE00FC7B0820011312000EFD7B1030000A128A
:1001CE00000EFE12000EFF7B20EC3382D592D5502E
:1001DE0013C3E43000069FFFE49EFEE42001039D5E
:1001EE00FDE49CFCE4CBF8C201EC700CCFCECDCC80
:1001FE00E824F8F870F38017C3EF33FFEE33FEED0B
:10020E0033FDEC33FCEB33FB994002FB0FD8E9EBEB
:10021E00300105F8D0E0C448B201C0E00AEC4D4E02
:10022E004F78207B0070C2EAB5570040BCC0E01288
:10023E0002A3D0F0D0E0200104C4C0E0C4B201C0DB
:10024E00F0120032D0F0D5F0EB020082120444011D
:10025E001F5301995800F04C00EC42019D4F01A52F
:0F026E004401A54901054301AB55018F46018F9E
:10027D0045018F47034B5000F42D00F82E011B2B29
:10028D0000FC2301192003342A00B4480000011397
:10029D003F3F3F00790AA2D5200314300509B9105C
:1002AD00020404B9080104A2D5200602500104205D
:1002BD0002689202B556005034C0E07F2030031919
:1002CD007F30A20272067205500F1202FAC202C2EC
:1002DD0006C205C2087F30800F300503E9C0E01269
:1002ED000049300503D0E0F9D0E0B556CC30051704
:1002FD007F30B9100C1200497F583004077F788089
:10030D0003B908031200493002057F2D0200497F11
:10031D00202008F87F2B2006F322920280CF286E32
:10032D00756C6C2900D20112000E3001F8C20178F3
:10033D005630D50108F60200B42D5043495812002D
:10034D000E2403B405004001E49003469312003AD5
:0D035D00743A12003AD20375560402019959
:1003CE00BB010CE58229F582E5833AF583E02250E4
:1003DE0006E92582F8E622BBFE06E92582F8E2222E
:0D03EE00E58229F582E5833AF583E4932248
:1003FB00BB010689828A83F0225002F722BBFE01E1
:02040B00F322DA
:09040D00E6FB08E6FA08E6F92214
:10041600FAE6FB0808E6F925F0F618E6CA3AF622E7
:09042600E0FBA3E0FAA3E0F922D7
:09042F00E2FB08E2FA08E2F922FE
:0C043800E493FB740193FA740293F92220
:10044400D083D082F8E4937012740193700DA3A347
:1004540093F8740193F5828883E47374029368605B
:06046400EFA3A3A380DF5B
:10091500EFB40A07740D120920740A309811A899CA
:10092500B8130CC2983098FDA899C298B811F63042
:0709350099FDC299F599221A
:00000001FF
