:03000000020F47A5
:0C0F4700787FE4F6D8FD758169020F8EFA
:1013FE00E490FEA0F07F021217377F1012170E7FB7
:10140E00011217157F0112171C12154E1214B41269
:10141E00167F12163B12156F1213B7120AA97D0111
:10142E00E4FF120EA7120C89120BA912144112120C
:03143E00CB80F26E
:10158F00D3EF9400EE940040147D3C7C06ED1D706B
:0D159F00011CED4C70F7EF1F70E61E80E39D
:0115AC00221C
:10167F00E490FE80F0F589758CFA758ACB43A80249
:04168F00438810225A
:03000B000216C317
:0D16C30075130175140175150175160132BE
:031731002564002C
:10154E0090FF12E054F04408F090FFA07424F0E4F1
:10155E0090FE8BF075CC0675CEFF75CD98759E02FC
:01156E00225A
:0B16D0008F99E59830E1FB5398FD2254
:101529008B538A548955AB53AA54A9551206CF60D7
:10153900130555E5557002055414F91206CFFF122B
:0515490016D080E22233
:060D4F008B308A3189326D
:100D5500754200754300754433AB30AA31A9321290
:100D650006CFFF7003020E0064257074042532F56A
:0F0D750032E43531F531FAA9321206CFB46437C2
:100D8400AB42E544F92402F544E543FA3400F54363
:100D94001206E8F54685F0457556FF7557177558E0
:100DA40031854559F55A7B007A00794712006A7BF0
:050DB400007A00794700
:0E0DB9008025AB30AA31A9321206CFB4732BBD
:100DC700AB42E544F92403F544E543FA3400F5431F
:0C0DD7001207138B458A46894712152924
:100DE300800DAB30AA31A9321206CFFF1216D07490
:0D0DF300012532F532E43531F531020D5E97
:010E000022CF
:10169300766464206C6576656C3A2025640D0A00D7
:1010D6004200410000011A000119044200430000C9
:0A10E600011800410040000117004E
:0B16DB00EF600443BB802253BB7F2262
:04172D0053BBF72291
:05172800E5BBA2E32275
:08000300E5BB54F84FF5BB22E8
:031734007F002211
:0B16E600EF1FAC0670011E4C70F622D6
:10156F0090FEA474C0F090FEA574FFF07F071200E8
:10157F000312172D7F011216DB90FEA774FFF022C6
:100BA900E5147003020C88E4F514900042E004F0A7
:100BB9007006900041E004F0C3900042E0940A906E
:100BC9000041E094005003020C88E4900041F0A336
:100BD900F0121728920912173490003FEFF024FB06
:100BE900606B146035146003020C8530091B121701
:100BF9002D900040E004F0E0C394055003020C88F6
:100C0900E4F0751A017F06802A900040E004F0E0C4
:100C1900C3940A406AE4F0F51A2230091912172D13
:100C2900900040E004F0E0C394054053E4F0751AE5
:100C3900027F05020003900040E004F0E0C3940A3B
:100C4900403DE4F07F07120003751A0122300915AF
:100C590012172D900040E004F0E0C394054020E411
:100C6900F0751A0322900040E004F0E0C3940A40B2
:0F0C79000EE4F07F06120003751A022275BB0706
:010C88002249
:10144100E515603CE4F515851A197BFF7A16799349
:10145100851933120D4FE51914600E14600F1460D5
:10146100152403701B7F0180067F01800BE4FF12AE
:1014710016FC7F018007E4FF1216FCE4FF1217053A
:011481002248
:0B16F10070325F353A2025640D0A00BE
:1010F00001670001690001680041004600420047A5
:0611000000004100450063
:1015E900900045E070047F0180027F00900045EF84
:0C15F900F060047F018002E4FF12165233
:0116050022C2
:01173A00228C
:01173B00228B
:01173C00228A
:01173D002289
:01173E002288
:10166900EF30E00302173CEF30E10302173DEF30A2
:06167900E20312173E22FD
:101606008F23E52330E0030215E9E52330E10302E9
:0B161600173AE52330E20312173B22D5
:10163B0090FF12E0540F4460F07D027F02121140C4
:07164B007D027F030211A9DB
:100C8900A2A5E433F522E5137003020D4EE4F51332
:100C9900A2A533900033F07BFF7A1679F1A2A592D1
:100CA90000120D4F900033E0FF3082047E02800273
:100CB9007E00EF4E900033F0E0FF30A3047E048005
:100CC900027E00EF4E900033F07003F56722E5676E
:100CD9006059900033E0FF900046E06F7039900052
:100CE90048E004F07006900047E004F0900047E007
:100CF900FCA3E0FDC394D0EC9407400AE5687006B4
:100D0900756801021669C3ED941EEC94004036E53E
:100D190069703275690122E568700CE569600890AF
:100D29000033E0FF121606E4F56722900033E0FF76
:100D3900900046E06F600EEFF0756701E4F569F524
:050D490068A3F0A3F017
:010D4E002282
:1014B4007D087F0412114090FF9C7404F075DEFFD8
:1014C400E4F5DF75DD927D08FF121140D2807D08BE
:0814D400E4FF1215CBD29022B7
:10165200EF14600B14600C2402700BE4F5DF2275AA
:07166200DF102275DF5522A5
:0916FC00EF7003D28022C28022AB
:09170500EF7003D29022C2902281
:10036A00696E76616C696420672072616E676520C8
:10037A007265717565737465643A2025640D0A00A7
:10038A00757064617465206773656E736F7220722D
:10039A00616E6765206661696C0D0A0073656E732C
:1003AA006974697669747920256420672D72616E93
:1003BA0067652025640D0A0075706461746520679D
:1003CA0073656E736F7220626475206661696C2151
:1003DA000D0A00757064617465206773656E736FCA
:1003EA007220626C65206661696C210D0A00757065
:1003FA0064617465206773656E736F72206872201A
:10040A006661696C210D0A00757064617465206704
:10041A0073656E736F72206F6472206661696C21F6
:10042A000D0A006773656E736F72207365742069B5
:10043A006E746572727570742074726967676C6520
:10044A0072206661696C210D0A006773656E736FAD
:10045A0072207365742054494D455F4C494D495487
:10046A00206661696C210D0A006773656E736F728D
:10047A00207365742054494D455F4C4154454E43A1
:10048A0059206661696C210D0A006773656E736F86
:10049A00722073657420696E746572727570742047
:1004AA0064657465637420656E61626C652066615B
:1004BA00696C210D0A006773656E736F7220656E31
:1004CA0061626C6520646972656374696F6E206924
:1004DA006E74657272757074206576656E742066C6
:1004EA0061696C210D0A006773656E736F7220650E
:1004FA006E61626C6520696E7465727275707420C3
:10050A006661696C210D0A007363376132302077A6
:10051A00726F6E672063686970206964210D0A0032
:10052A007570646174655F675F72616E6765206686
:10053A0061696C65640D0A007570646174655F6257
:10054A006475206661696C65640D0A007570646182
:10055A0074655F626C65206661696C65640D0A008A
:10056A007570646174655F6872206661696C656440
:10057A000D0A007570646174655F6F64722066614C
:10058A00696C65640D0A00736337613230206877DD
:10059A0020696E697420646F6E65210D0A007363A9
:1005AA003761323020696E6974206661696C6564EE
:1005BA000D0A00783A2025642C20793A2025642CEB
:0F05CA00207A3A2025640D0A000000000000008E
:10110600500023000100030005000A001400280017
:101116006403E84800039070605040302010460099
:101126000B00000000000046001D0000000000004B
:091136004200000000410002002B
:1013B70090FF02E0540F4480F090FF03E0540F4485
:1013C70040F090FF10E054F04408F090FF03E05421
:1013D700F04408F090FFA47405F090FFA77407F09D
:1013E70090FFA67420F090FFA57406F0E4F5ABF526
:0713F700AD75ACDFD28522C9
:1016A30075ADC08FABE5AD30E7FB75ADC0AFAB2219
:1015AD00D3EF9400EE94004007EF1F70F31E80F010
:0D15BD007F027E00EF1F70011EEF4E70F7E1
:0115CA0022FE
:10121200E490003CF0A3F0A3F0C285EF543FF0D37A
:10122200EB9401EA94004004E04440F090003EE078
:10123200FF1216A3C390003DE09B90003CE09A5041
:101242002FEB9400EA940040277F0A7E001215AD2E
:10125200E0FEA3E02DF582EC3EF583E0FF1216A33B
:1012620090003DE004F070CC90003CE004F080C4BB
:05127200D285E4FEFF3F
:011277002254
:08105E008C328D338A348B358E
:10106600E490003CF0A3F0A3F0C285EF4480F0D3F7
:10107600E5359401E53494004004E04440F09000E6
:101086003EE0FF1216A3C390003DE0953590003C6C
:10109600E095345035E5359400E5349400402B7FD7
:1010A6000A7E001215AD7FFF1216A3E0FCA3E02511
:1010B60033F582E5323CF583EFF090003DE004F035
:0F10C60070C490003CE004F080BCD285E4FEFFD3
:0110D50022F8
:091621005EFEEF594EF0FD7F233F
:10162A0090003BEDF07C007D3B7B017A00121212A8
:01163A00228D
:041503007C007D33B8
:041507008C308D3166
:10150B00E490003BF07C007D3B7B01FA12105E9077
:0D151B00003BE0853182853083F0E4FEFF67
:0115280022A0
:020E01008F2E32
:100E030090003A7430F0E52E24F0601424F060185A
:100E130024F0601C243070209000357404F080238B
:100E23009000357403F0801B9000357402F080133A
:100E33009000357401F0800B7BFF7A03796A852E6D
:100E43003380417C007D377F23121507900038E5FE
:100E53002EF090003AE0FFF4FE900037E05EFEE5EE
:100E63002E5F4E9000361216267C007D397F2312AA
:100E73001507900039E0FF900036E06F600E7BFFAE
:100E83007A03798A120D4F7EFF7FFF22900035E0AF
:100E9300F5097BFF7A0379A6F533852E34120D4FBE
:030EA300E4FEFF6B
:010EA6002229
:02131D00A9071E
:10131F009000397480F07C007D367F231215079082
:10132F000037E9F0900039E0FFF4FE900036E090CE
:10133F0000351216217C007D387F2312150790008F
:10134F0038E0FF900035E06F600E7BFF7A0379C2C3
:0B135F00120D4F7EFF7FFF22E4FEFF17
:01136A002260
:02136B00A907D0
:10136D009000387440F07C007D367F231215079075
:10137D000037E9F0A3E0FFF4FE900036E090003571
:10138D001216217C007D1A7F2312150790001AE09A
:10139D00FF900035E06F600E7BFF7A0379DD120D53
:0913AD004F7EFF7FFF22E4FEFFEA
:0113B6002214
:02127800A907C4
:10127A009000397408F07C007D367F2312150790A0
:10128A000037E9F0900039E0FFF4FE900036E05EA6
:10129A00FEEF594E9000351216267C007D387F23CA
:1012AA00121507900038E0FF900035E06F600E7B62
:1012BA00FF7A0379F8120D4F7EFF7FFF22E4FEFFCB
:0112CA002201
:040FD300AD07AC06B4
:100FD70074FFF52EF52F900037E4F0A37408F02482
:100FE700FFFFE434FFAB07FAC3EA64809480402232
:100FF700EB25E0FFEA33FE74232FF58274003EF5FC
:1010070083E0FEA3E0D39DEE9C4007EB1B70D91A4B
:1010170080D674032BF58274003AF583E09000358F
:10102700F04407F0FD7F2012162A7C007D367F20D2
:10103700121507900036E0FF900035E06F600E7BD9
:10104700FF7A047912120D4F7EFF7FFF2290003541
:06105700E0F50DE4FEFFD0
:01105D002270
:10148200EF4D4B451E9000491216267C007D4A7F87
:101492002312150790004AE0FF900049E06F600EAA
:1014A2007BFF7A0379F8120D4F7EFF7FFF22E4FE65
:0114B200FF3A
:0114B3002216
:10098D00E4900036F0900035F0FD7F2512162A7C9C
:10099D00007D367F25121507900035E0FFA3E06F2F
:1009AD0060097BFF7A04792D120D4F90003574503C
:1009BD00F0FD7F3A12162A7C007D367F3A1215071C
:1009CD00900035E0FFA3E06F60097BFF7A04792D7D
:1009DD00120D4F900035747FF0FD7F3B12162A7C6F
:1009ED00007D367F3B121507900035E0FFA3E06FC9
:1009FD0060097BFF7A047954120D4F900035740510
:100A0D00F0FD7F3C12162A7C007D367F3C121507C7
:100A1D00900035E0FFA3E06F60097BFF7A047973E6
:100A2D00120D4F9000357415F0FD7F3812162A7C8B
:100A3D00007D367F38121507900035E0FFA3E06F7B
:100A4D0060097BFF7A047994120D4F90003574156F
:100A5D00F0FD7F3012162A7C007D367F301215078F
:100A6D00900035E0FFA3E06F60097BFF7A0479C049
:100A7D00120D4F9000357480F0FD7F2212162A7CE6
:100A8D00007D367F22121507900035E0FFA3E06F41
:0B0A9D0060097BFF7A0479F1120D4F15
:010AA800222B
:100AA900E4900034F07C007D347F0F12150790002C
:100AB90034E0641160097BFF7A057912020BA59075
:100AC90000177407F0E4A3F0A3F0A3F0A3F0A3F0D8
:100AD900F50E750901AF0E120E018E2C8F2DD3E480
:100AE900952DE52C6480F874809840097BFF7A0580
:100AF900792A020B89750880AF0812131D8E2C8F75
:100B09002DD3E4952DE52C6480F874809840087BFA
:100B1900FF7A0579428069E4F511AF1112136B8EE2
:100B29002C8F2DD3E4952DE52C6480F874809840A2
:100B3900087BFF7A0579568047750A08AF0A1212B1
:100B4900788E2C8F2DD3E4952DE52C6480F8748054
:100B59009840087BFF7A05796A8025750F14750C12
:100B690014AF0C7E00120FD38E2C8F2DD3E4952D4C
:100B7900E52C6480F8748098400B7BFF7A05797DB9
:100B8900120D4F800E12098D750B017BFF7A0579C5
:0F0B9900918009E4F50B7BFF7A0579A8120D4FC7
:010BA800222A
:0407CF008E228F23C4
:1007D30074FFF524F52578267C007D00FB7A0579E6
:1007E300D37E007F061206A9E4900033F07F0F1238
:1007F3001503900033E06411600C7BFF7A057912D6
:10080300120D4F0209887F27121503900033E0541D
:100813000F640F60030209647C007D337F28121587
:1008230007900033E0900011F07C007D337F2912A4
:100833001507900033E0900012F07C007D337F2A8F
:10084300121507900033E0900013F07C007D337F96
:100853002B121507900033E0900014F07C007D33D9
:100863007F2C121507900033E0900015F07C007D7B
:10087300337F2D121507900033E0FF900016F0FD33
:10088300900012E0FE900011E0FBEEF526EBF52759
:10089300900014E0FE900013E0FBEEF528EBF52941
:1008A300EDFE900015E0FDEEF52AEDF52BE527AE04
:1008B30026A809088006CEA2E713CE13D8F8F52799
:1008C3008E26E529AE28A809088006CEA2E713CE16
:1008D30013D8F8F5298E28E52BAE2AA80908800637
:1008E300CEA2E713CE13D8F8F52B8E2A8523828563
:1008F3002283E526F0A3E527F0852382852283A3BF
:10090300A3E528F0A3E529F0E5232404F582E435E3
:1009130022F583E52AF0A3E52BF085238285228344
:10092300E0FFA3E090000BCFF0A3EFF085238285D7
:100933002283A3A3E0FFA3E090000DCFF0A3EFF089
:10094300E5232404F582E43522F583E0FFA3E09058
:10095300000FCFF0A3EFF0E4900000F0A3F0FEFF50
:1009630022900001E004F07006900000E004F0C360
:10097300900001E09470900000E094174007E4F0C9
:09098300A3F0120AA97EFF7FFF18
:01098C002248
:01173F002287
:1012CB00E516604DE4F516900002E004F0E0C394DF
:1012DB000A403EE4900002F0E50B7003020AA97E7F
:1012EB00007F1D1207CFEFF47002EEF460237BFF3B
:1012FB007A0579BD90001DE0F533A3E0F534A3E04A
:10130B00F535A3E0F536A3E0F537A3E0F538120D7C
:01131B004F82
:01131C0022AE
:031737008F8F226F
:07170E00538ECFEF428E2243
:07171500538EFCEF428E220F
:06171C0090FE91EFF022A7
:10114000EFB40800506290114DF828287302116521
:1011500002116A02117402117902118302118802CC
:10116000119202119B90FF00802BEDC454F0FF9070
:10117000FF00802F90FF01801CEDC454F0FF90FF12
:1011800001802090FF02800DEDC454F0FF90FF021B
:10119000801190FF03E054F04DF022EDC454F0FFB5
:0911A00090FF03E0540F4FF02210
:1015CB00EF14600C04701690FF08E054F04DF022FD
:0E15DB00EDC454F0FF90FF08E0540F4FF022D3
:1011A900EFB4080050629011B6F82828730211CEE6
:1011B9000211D30211DD0211E20211EC0211F10256
:1011C90011FB02120490FF10802BEDC454F0FF9024
:1011D900FF10802F90FF11801CEDC454F0FF90FF89
:1011E90011802090FF12800DEDC454F0FF90FF1282
:1011F900801190FF13E054F04DF022EDC454F0FF3C
:0912090090FF13E0540F4FF02296
:100EA700EFB410004003020F46900EB7F8282873DE
:100EB700020EE7020EED020EF3020EF9020EFF021A
:100EC7000F05020F0B020F11020F17020F1D020F62
:100ED70023020F29020F2F020F35020F3B020F418A
:100EE700ED24FF92AF22ED24FF92AE22ED24FF9274
:100EF700AD22ED24FF92AC22ED24FF92AB22ED242C
:100F0700FF92AA22ED24FF92A922ED24FF92A822A4
:100F1700ED24FF92BF22ED24FF92BE22ED24FF9223
:100F2700BD22ED24FF92BC22ED24FF92BB22ED24CB
:100F3700FF92BA22ED24FF92B922ED24FF92B82244
:06172200EF4D4BF5BD2266
:1016B300300A0790FEA074FFF022E490FEA0F0220F
:100F53000213FEE493A3F8E493A34003F68001F2A3
:100F630008DFF48029E493A3F85407240CC8C3339F
:100F7300C4540F4420C8834004F456800146F6DF6E
:100F8300E4800B01020408102040809010D6E47E18
:100F9300019360BCA3FF543F30E509541FFEE49363
:100FA300A360010ECF54C025E060A840B8E493A32A
:100FB300FAE493A3F8E493A3C8C582C8CAC583CA55
:100FC300F0A3C8C582C8CAC583CADFE9DEE780BE0D
:01113F0000AF
:1005D900E709F608DFFA8046E709F208DFFA803E04
:1005E90088828C83E709F0A3DFFA8032E309F608F1
:1005F900DFFA8078E309F208DFFA807088828C8359
:10060900E309F0A3DFFA806489828A83E0A3F6080C
:10061900DFFA805889828A83E0A3F208DFFA804CE6
:1006290080D280FA80C680D4806980F280338010BD
:1006390080A680EA809A80A880DA80E280CA803326
:1006490089828A83ECFAE493A3C8C582C8CCC5839E
:10065900CCF0A3C8C582C8CCC583CCDFE9DEE7806E
:100669000D89828A83E493A3F608DFF9ECFAA9F0ED
:10067900EDFB2289828A83ECFAE0A3C8C582C8CC43
:10068900C583CCF0A3C8C582C8CCC583CCDFEADE5C
:10069900E880DB89828A83E493A3F208DFF980CCBE
:1006A90088F0EF60010E4E60C388F0ED2402B404B7
:1006B9000050B9F582EB2402B4040050AF2323455E
:0606C90082239006297354
:1006CF00BB010689828A83E0225002E722BBFE0229
:0906DF00E32289828A83E493225C
:1006E800BB010A89828A83E0F5F0A3E022500687DD
:1006F800F009E71922BBFE07E3F5F009E31922899F
:0B070800828A83E493F5F074019322D1
:10071300BB010789828A8302078B5005E9F8020728
:1007230072BBFE05E9F802079489828A8302079D5A
:10000E00E5622456F8E605622278533007027856E8
:10001E00E475F00112077B0206CF2000EB7F2ED293
:10002E00008018EF540F2490D43440D4FF30040BCA
:10003E00EF24BFB41A0050032461FFE5636002157C
:10004E00630566E5667002056530070D7853E47545
:10005E00F00112077BEF0207600214DC7403D20773
:10006E008003E4C207F5628B538A548955E4F56325
:10007E00F565F566E56360077F2012004980F5752A
:10008E0064FFC201C200C202C203C205C206C20898
:10009E00120017FF700D3007057F0012005AAF6671
:1000AE00AE6522B4255FC2D5C204120017FF24D05C
:1000BE00B40A00501A75F00A786330D50508B6FFF9
:1000CE000106C6A426F620D5047002D20380D924D8
:1000DE00CFB41A00EF5004C2E5D20402025AD20184
:1000EE0080C6D20080C0D20280BCD2D580BAD205E2
:1000FE0080B47F201200492002077401B5630040CE
:10010E00F112000EFF120049020082D208D20680C0
:10011E009512000EFB12000EFA12000EF94A4B70E9
:10012E0006792B7A037BFF20022EE563602A7E0080
:10013E008E8275830012073360060EEE656470F0D2
:10014E00C2D5EBC0E0EAC0E0E9C0E0EE1202A1D0F9
:10015E00E0F9D0E0FAD0E0FB1206CFFF60AAEBC0C8
:10016E00E0EAC0E0E9C0E0120049D0E02401F9D095
:10017E00E03400FAD0E0FBE5640460DCD564D9809D
:10018E00877BFF7A02799DD202809C79108002795A
:10019E0008C206C2088008D2D5790A8004790AC23C
:1001AE00D5E564047002F564E4FAFDFEFF12000E5C
:1001BE00FC7B0820011312000EFD7B1030000A128A
:1001CE00000EFE12000EFF7B20EC3382D592D5502E
:1001DE0013C3E43000069FFFE49EFEE42001039D5E
:1001EE00FDE49CFCE4CBF8C201EC700CCFCECDCC80
:1001FE00E824F8F870F38017C3EF33FFEE33FEED0B
:10020E0033FDEC33FCEB33FB994002FB0FD8E9EBEB
:10021E00300105F8D0E0C448B201C0E00AEC4D4E02
:10022E004F78207B0070C2EAB5640040BCC0E0127B
:10023E0002A3D0F0D0E0200104C4C0E0C4B201C0DB
:10024E00F0120032D0F0D5F0EB0200821207A901B5
:10025E001F5301995800F04C00EC42019D4F01A52F
:0F026E004401A54901054301AB55018F46018F9E
:10027D0045018F47034B5000F42D00F82E011B2B29
:10028D0000FC2301192003342A00B4480000011397
:10029D003F3F3F00790AA2D5200314300509B9105C
:1002AD00020404B9080104A2D5200602500104205D
:1002BD0002689202B563005034C0E07F203003190C
:1002CD007F30A20272067205500F1202FAC202C2EC
:1002DD0006C205C2087F30800F300503E9C0E01269
:1002ED000049300503D0E0F9D0E0B563CC300517F7
:1002FD007F30B9100C1200497F583004077F788089
:10030D0003B908031200493002057F2D0200497F11
:10031D00202008F87F2B2006F322920280CF286E32
:10032D00756C6C2900D20112000E3001F8C20178F3
:10033D006330D50108F60200B42D50434958120020
:10034D000E2403B405004001E49003469312003AD5
:0D035D00743A12003AD2037563040201994C
:10073300BB010CE58229F582E5833AF583E022507B
:1007430006E92582F8E622BBFE06E92582F8E222C5
:0D075300E58229F582E5833AF583E49322DF
:10076000BB010689828A83F0225002F722BBFE0178
:02077000F32272
:09077200E6FB08E6FA08E6F922AC
:10077B00FAE6FB0808E6F925F0F618E6CA3AF6227F
:09078B00E0FBA3E0FAA3E0F9226F
:09079400E2FB08E2FA08E2F92296
:0C079D00E493FB740193FA740293F922B8
:1007A900D083D082F8E4937012740193700DA3A3DF
:1007B90093F8740193F5828883E4737402936860F3
:0607C900EFA3A3A380DFF3
:1014DC00EFB40A07740D1214E7740A309811A89926
:1014EC00B8130CC2983098FDA899C298B811F63070
:0714FC0099FDC299F5992248
:00000001FF
